:020000040800F2
:10000000B81000207D110008851100088911000832
:100010008D110008911100089511000800000000E2
:10002000000000000000000000000000991100081E
:100030009D11000800000000A1110008A511000892
:10004000A9110008AD110008B1110008B511000890
:10005000B9110008BD1100081D020008C5110008F3
:10006000C9110008CD110008D1110008D5110008F0
:10007000D9110008DD110008E1110008E5110008A0
:10008000E9110008ED110008F1110008000000005E
:10009000000000000000000000000000F511000852
:1000A000F9110008FD1100080112000805120008EE
:1000B000870200080D12000811120008151200082E
:1000C000191200081D12000821120008251200084C
:1000D000291200082D1200083112000835120008FC
:1000E000391200083D1200084112000845120008AC
:1000F000491200084D120008000000000000000036
:100100000000000000000000511200085512000815
:10011000591200085D1200086112000865120008FB
:10012000691200086D1200087112000875120008AB
:1001300079120008F8B50020DFF89813CDE9020124
:100140000020DFF89013CDE900010022DFF88433AE
:10015000DFF8840300F0E6F905B000BD0100C9B284
:100160000A2903D00100C9B20D2910D1DFF86C13A0
:100170000A6812681206F9D50A220B685A600A68E2
:1001800012681206FBD50D2209684A6009E0DFF803
:100190004C130A6812681206F9D50200D2B2096837
:1001A0004A60C0B270477FB504000D000A220021EA
:1001B000684600F04AFA0026002D06D52D20FFF7EC
:1001C000CDFF644275EB450518E0002D16D1002CDB
:1001D00014D13020FFF7C2FF1FE0200029000A22BF
:1001E000002300F059FA68468255200029000A22AF
:1001F000002300F051FA04000D00761C002DECD114
:10020000002CEAD1761E06E06846805D3030C0B230
:10021000FFF7A4FF761E002EF6D57FBDB04801681B
:100220004969C9072ED50168496951F00101006883
:100230004161AC480068806880070BD5AA48016816
:10024000491C0160A9480168491C01600120A849B6
:1002500008700AE0A4480168491E0160A3480168CB
:10026000491E0160FF20A2490870A249A24A0B68FA
:100270000B204343B2FBF3F0A04A1080002008603B
:100280009F490860704710B400209E4909680861C2
:1002900098490868401C086094480368924A1468AA
:1002A000A34221D198480278012A05D10968944ACD
:1002B0001160002101701CE00868944A904203D349
:1002C00000208F4A106008600B688D4A10681B1A66
:1002D00048F6306083420CD30020086010608749E4
:1002E00008808349087004E00121874B1970116868
:1002F000016010BC704710B500F077F800F0C7F847
:1003000083490868826940F20110024308688261EB
:100310000868C06950F001000968C8617148016847
:10032000096851F04401006801607A4801688968F1
:1003300051F066010068816069480168896851F080
:100340000101026891600168C968490849000268B2
:10035000D1600168096851F00101006801606948D5
:1003600059210268916201210268D162002102686C
:10037000516200210268116101210268D1600168A7
:10038000496951F00101026851610168096851F041
:100390000101006801606048016851F0400101609E
:1003A000016851F0805101604B4C00225B4B2000F2
:1003B00000F0ACFA5148008800F0C2FA02000B00CD
:1003C000200000F0EFF8D4E9000100F0C7FAFFF7D1
:1003D000EAFE0920FFF7C2FE43480068C117FFF795
:1003E000E2FE0A20FFF7BAFEE4E7494801684968DF
:1003F00031F0E061026851600168496851F48001A0
:10040000026851600168496851F4E0110268516066
:100410000168496851F40031026851600168496817
:1004200051F48031026851600168496851F480419B
:10043000026851600168496831F4E0610268516006
:100440000168496831F460510268516001680968C7
:1004500051F4803102681160016809688903FBD595
:100460000168096851F080710268116001680968CB
:100470008901FBD50168496851F0020102685160A9
:1004800001684968C1F381010229F9D17047204808
:100490000168896951F005010268916120490A6883
:1004A000526852F4966209684A600168896951F499
:1004B000804100688161094890210268916001686B
:1004C000C96841F4005151F00C010068C1607047E7
:1004D000000000000000F03F200000201800002075
:1004E0000800002004000020A0000020A40000203C
:1004F000B2000020A8000020801A0600B0000020F2
:10050000AC000020140000201C00002000093D0069
:100510000C0000201000002000E100E00000594025
:10052000000000202DE9F003DDE90645DDE908675C
:100530005FF00008DFF86090C0E90E895FF0000806
:100540005FF00009C0E912895FF000085FF0000960
:10055000C0E914895FF000085FF00009C0E916895E
:10056000DFF83880DFF83890C0E91E89C0E902233F
:10057000D0E90223C0E90823C0E90445D0E90423F7
:10058000C0E90A23C0E90667D0E90623C0E90C23C5
:10059000BDE8F00370470000000069407B14AE47DF
:1005A000E17A843F80B5C0E9182300F001F804BD6A
:1005B000D0B50400D4E90001D4E9182300F0FCF917
:1005C000C4E91A01D4E91A01C4E91201D4E91A23D1
:1005D000D4E91E0100F062FAD4E9142300F030FBE4
:1005E000C4E91401D4E91A01D4E91C2300F0E4F9A8
:1005F000D4E91E2300F0E2FBC4E91601D4E912237A
:10060000D4E9020100F04AFA06000F00D4E91423ED
:10061000D4E9040100F042FA32003B0000F010FB84
:1006200006000F00D4E91623D4E9060100F036FADB
:1006300032003B0000F004FBC4E91001D4E91A01C8
:10064000C4E91C01D4E91001D0BD10B50446104620
:100650000A460146204600F0D5FC204610BD30B4C5
:10066000002513E050F8042BD30744BFA9F1010380
:100670009A18091F042942F8045BFAD213468C0722
:1006800044BF15809B1CC90748BF1D7050F8041B50
:100690000029E7D130BC704713F0004C03D55B4212
:1006A000524263F100039CEA210C00F0178010B560
:1006B000644603D34942404261F1000100F00EF864
:1006C000640004D34942404261F10001244203D551
:1006D0005B42524263F1000310BD0000BBBBE1B1BD
:1006E000B2F5803F80F07E80022A1ED98C46B1FB95
:1006F000F2F102FB11C31B0443EA1043B3FBF2FC0B
:1007000002FB1C3380B240EA0343B3FBF2F002FB6E
:10071000103240EA0C4000237047022A05D9844673
:10072000B0FBF2F002FB10C270474AB105D100F0F5
:10073000010249085FEA3000704700220023704739
:1007400000F094BC0B000200002100207047904292
:1007500071EB030CF6D3B3F5803F2FD2F0B5B3FAAB
:1007600083F7B1FA81F4A7F10F0E3D1B5340CEF190
:10077000200602FA0EF2F3415340B5F10F0746D8B6
:100780000F3C2C444140C4F12006A040F1414140BF
:10079000B1FBF3F603FB1611A2FB0645001BA941B2
:1007A00002D2761E8018594180EA010221FA0EF326
:1007B00062FA0EF200215A403046F0BD30B4B1FB6F
:1007C000F3FC03FB1C11A2FB0C45001BA94103D247
:1007D000ACF1010C8018594130BC02460B46604612
:1007E00000217047B2F1807F65D3F0B5B2FA82F78D
:1007F000B1FA81F4C7F10F063D1B22FA06F307F1A7
:10080000110EF24120355A40B5F10F07B8D94140D9
:10081000C4F12006A040F1414140B1FBF3FC03FBD1
:100820001C11A2FB0C45001BA94103D2BCF1010C19
:10083000801859410F2F12D30F3FC90341EA50418D
:10084000B1FBF3F603FB1611A2FB0645D4EBC03057
:10085000A94102D2761E8018594146EACC3C07B322
:100860004140C7F12006B840F1414140B1FBF3F6E9
:1008700003FB1611A2FB0645001BA94102D2761EFE
:100880008018594180EA010221FA0EF3C7F12004D1
:1008900062FA0EF20CFA07F05A402CFA04F13043D7
:1008A000F0BD80EA010221FA0EF3002162FA0EF295
:1008B00060465A40F0BD8C46B1FBF2F102FB11C319
:1008C0001B0243EA1063B3FBF2FC02FB1C331B0266
:1008D0004CEA002043EA1063B3FBF2FC02FB1C333A
:1008E0001B024CEA002043EA1063B3FBF2FC02FB5C
:1008F0001C331B024CEA002043EA1063B3FBF2FCFA
:1009000002FB1C324CEA002000237047C0E90023A0
:10091000704730B40EE00268436802440830DC07D8
:1009200044BFA9F10104E31852F8045B43F8045BE7
:10093000091FF9D150F8041B0029ECD130BC7047D5
:10094000014648B1B0FA80F18840C91CC1F5846104
:10095000090501EBD021400570470000C1F30A539F
:1009600040F2FE329B1A24DDCA17C902D3F12003DC
:1009700041EA505141F0004104DDD940881850400F
:100980001146704720330CDDC002C3F1200C01FA80
:100990000CFCD940D840604480185141504051402F
:1009A000704740F2C1301B1803D0D04380F00041A3
:1009B000704700200021704770B44FF0004591EA65
:1009C000030F40F145816B40841A71EB030603D29B
:1009D000001BB141121973414FF4001C1CEB410F75
:1009E00034BF7CEB430442E00C0DA4EB1356352ED0
:1009F0004FDC45EAC323DB0A45EAC121C912B6F13F
:100A000020050DDD63FA05F6EB4086EA0305124288
:100A100018BF45F00105C01851F100010CD213E0D8
:100A200062FA06F5F2405540F3415A40B340F340B4
:100A30005A408018594107D349085FEA30005FEAFD
:100A4000350528BF45F0010501F58011420875F113
:100A5000004250F1000041EB04514E0016F5001F1A
:100A600070BC38BF70470020090D090570471CEBAA
:100A7000410F10D252EA43060BD0BCEB410F05D810
:100A80000C0DAB43661E342EB6DD02E0AB4380187E
:100A9000594170BC704770BC70470000B0B581EA26
:100AA000030C0CF0004C40F2FF7515EA11541DBF09
:100AB00015EA1357AC42AF4239E0E41923EA455333
:100AC00043F48013C90241F0004141EA505EC7027D
:100AD0001100A7FB020200284FF00000EEFB0120EE
:100AE0004FF00001E3FB072118BF42F0010240185C
:100AF00000214941E3FB0E01A4F580640F0302D2FB
:100B000052004041494154F101046CDD470872F143
:100B1000004250F1000051EB0451A1F580115CBF7F
:100B200041EA0C01B0BD4CEA05510020B0BD05EA18
:100B30001357AC4214BFAF4241E050EA410E1CBF14
:100B400052EA430E02E061460020B0BD24423C441C
:100B50001BD15FEA070EF6D0090302BF0146002051
:100B6000AEF1140EB1FA81F7AEEB070401FA07FEFD
:100B70000C37C7F1200100FA07F7C8404EEA000E13
:100B800023EA455343F48013A2E733F00043B3FA5A
:100B900083F704BFB2FA82FE77440B3FE41BB7F140
:100BA000200E2FBF02FA0EF3BB40C7F1200E22FA2F
:100BB0000EFE38BF43EA0E03BA40641C82E750EAD7
:100BC000410E14BF52EA430E6FF000014FF40017BC
:100BD00017EB430F8ABF194617EB410FB5E74CEAF5
:100BE00005510020B0BDD4F10104B4F120070FDAA3
:100BF000C4F12007520828BF42F0010210FA07F59D
:100C000001FA07F7E1BF2A43E0403843E1400FE033
:100C1000352C98DCC7F1200452EA400220FA07F292
:100C200018BF42F0010231FA07F0A1400A43002147
:100C300072F1004250F1000051EB0C01B0BD000018
:100C400070B44FF0004591EA030F7FF5BDAE6B40E5
:100C5000841A71EB030604D26E40001BB1411219D5
:100C600073414FF4001C1CEB410F34BF7CEB430677
:100C700083E00C0DA4EB1356362E00F37C80012E7E
:100C800045EAC32341DC43EA525312BFD202920227
:100C90005B08240545EAC12141EA5051D2EBC0204E
:100CA000994125D407D1B0FA80F610FA06F162D046
:100CB0000020203608E0B1FA81F6B140C6F12002EA
:100CC00020FA02F21143B0404FEAF474B4EB4654F8
:100CD00034F001064FEA74040AD8D6F50016760DF2
:100CE00004F00044F04061FA06F25040F140484000
:100CF000C00A40EA415021F0004128BF5FEA500598
:100D000050F1000044EBD12135E0DB0A45EAC12176
:100D1000C90AB6F120050EDD42EA0242120CC5F105
:100D2000200603FA06F6EB4042EA06056D429841BA
:100D300061F100010DE062FA06F5F240554063FAF8
:100D400006FC82EA0C02F3405A406D42904161EB8E
:100D5000030111F4801F05D1641E620502D06D00ED
:100D60004041494121F48011430875F1004350F19D
:100D7000000041EB045170BC70471CEB410F15D2D1
:100D800023F0004352EA43060BD04FEA4C0CBCEB75
:100D9000410F04D80C0D661E342EB7DDEBE7801A28
:100DA000994150EA410608BF0021E4E708BF1CEB67
:100DB000430F28BF6FF00001DDE70000F0B540F2FF
:100DC000FF7581EA030C0CF0004C15EA11541DBFAD
:100DD00015EA1357AC42AF42E5E0BC41C1F3130141
:100DE000C3F31303801A994143F4801304D2641EA1
:100DF0004000494180185941C90241EA5051B1FBB4
:100E0000F3F603FB1611A2FB0675D7EBC020A94130
:100E100002D2761E80185941C90241EA5051B1FBF5
:100E2000F3FE03FB1E11A2FB0E75D7EBC020A941F8
:100E300003D2AEF1010E80185941890241EA905166
:100E4000760546EA8E2EB1FBF3F603FB1611A2FBE4
:100E50000675D7EB8020A94102D2761E8018594131
:100E6000C90241EA50514EEA060EB1FBF3F603FB0C
:100E70001611A2FB0675D7EBC020A94102D2761E3F
:100E800080185941C90241EA5051B1FBF3F703FB05
:100E90001711A2FB0735D3EBC020A94167F100076A
:100EA0000CBF004247F0010766F3D5274FEA1E3119
:100EB000B80814F5806412DDBD0775F1004250EBEF
:100EC0000E5051EB045111F5801F5CBF41EA0C013B
:100ED000F0BD4CF07F6141F0E0410020F0BDBD0766
:100EE0006D0840EA0E5041F48011D4F10104B4F1D0
:100EF00020060ADAC4F120060200E04001FA06F3F7
:100F0000E1401843B24015430EE0342C13DCC6F127
:100F1000200445EA40056D0820FA06F2154321FA3F
:100F200006F0A1400D43002175F1004250F1000090
:100F300051EB0C01F0BD00205FEA0C01F0BDCFB910
:100F400092185B41B3FA83F704BFB2FA82F6BF1975
:100F50000B3FB7F120062FBF02FA06F3BB40C7F1E3
:100F6000200622FA06F638BF3343BA401CB1E41912
:100F7000641E33E77F4231F00041B1FA81F404BFCF
:100F8000B0FA80F6A4190B3CB4F120062FBF00FA8A
:100F900006F1A140C4F1200620FA06F638BF31431D
:100FA000A0403C1B1AE7AC421ABF05EA1357AF42F8
:100FB00012E050EA41061CBF52EA4306BFE750EA7E
:100FC0004107304661461CBF41EA0551F0BD52EA77
:100FD000430C08BFC143F0BD00204FF4001616EBD0
:100FE000410F98BF16EB430F08BF16EB410F24BF0C
:100FF000C14305E016EB430F0CBF61464CEA0551B7
:10100000F0BD000062F30F2262F31F42401810F09F
:10101000030308D0C91A1FD3DB0748BF00F8012D0E
:1010200028BF20F8022D130030B41446154610399D
:1010300028BF20E93C00FAD8490728BF20E90C0066
:1010400048BF40F8042D890028BF20F8022D48BF72
:1010500000F8012D30BC7047C91818BF00F8012DE9
:10106000CB0728BF00F8012D704700007047000033
:1010700010B5074979441831064C7C44163404E015
:101080000A68081D114488470146A142F8D110BDE5
:10109000080000002C000000C7F5FFFF94000000CE
:1010A00020000020000000006BF8FFFF200000007F
:1010B000900000000000002000000000050000007B
:1010C00010B50446044979440E31044878440C3084
:1010D00000F006F8204610BDA8010000A0010000A5
:1010E00038B504460D46AC4205D02068201880472C
:1010F000241DAC42F9D131BD00F00DF8002801D01B
:10110000FFF7B6FFAFF300800020AFF30080FFF7DA
:10111000F2F800F002F80120704700F001B800007A
:101120000746384600F002F8FBE7000080B5AFF351
:101130000080024A11001820ABBEFBE72600020027
:10114000000801400020014000040140001002405E
:101150000000014000000040003801400100000094
:101160000548014603B4684680F30988AFF3008060
:10117000AFF30080FFF7C0FFA5EDF5FE0048004784
:1011800061110008FFF7FEBFFFF7FEBFFFF7FEBFCC
:10119000FFF7FEBFFFF7FEBFFFF7FEBFFFF7FEBF83
:1011A000FFF7FEBFFFF7FEBFFFF7FEBFFFF7FEBF73
:1011B000FFF7FEBFFFF7FEBFFFF7FEBFFFF7FEBF63
:1011C000FFF72CB8FFF7FEBFFFF7FEBFFFF7FEBF2C
:1011D000FFF7FEBFFFF7FEBFFFF7FEBFFFF7FEBF43
:1011E000FFF7FEBFFFF7FEBFFFF7FEBFFFF7FEBF33
:1011F000FFF7FEBFFFF7FEBFFFF7FEBFFFF7FEBF23
:10120000FFF7FEBFFFF7FEBFFFF73DB8FFF7FEBFDA
:10121000FFF7FEBFFFF7FEBFFFF7FEBFFFF7FEBF02
:10122000FFF7FEBFFFF7FEBFFFF7FEBFFFF7FEBFF2
:10123000FFF7FEBFFFF7FEBFFFF7FEBFFFF7FEBFE2
:10124000FFF7FEBFFFF7FEBFFFF7FEBFFFF7FEBFD2
:10125000FFF7FEBFFFF7FEBFFFF7FEBFFFF7FEBFC2
:10126000FFF7FEBFFFF7FEBFFFF7FEBFFFF7FEBFB2
:10127000FFF7FEBFFFF7FEBFFFF7FEBFB9EEFFFFB0
:04000005080011617D
:00000001FF
